{
  "contractName": "ERC721",
  "abi": [
    {
      "anonymous": false,
      "inputs": [
        {
          "indexed": true,
          "internalType": "address",
          "name": "from",
          "type": "address"
        },
        {
          "indexed": true,
          "internalType": "address",
          "name": "to",
          "type": "address"
        },
        {
          "indexed": true,
          "internalType": "uint256",
          "name": "tokenId",
          "type": "uint256"
        }
      ],
      "name": "Transfer",
      "type": "event"
    },
    {
      "inputs": [
        {
          "internalType": "address",
          "name": "_owner",
          "type": "address"
        }
      ],
      "name": "balanceOf",
      "outputs": [
        {
          "internalType": "uint256",
          "name": "",
          "type": "uint256"
        }
      ],
      "stateMutability": "view",
      "type": "function"
    },
    {
      "inputs": [
        {
          "internalType": "uint256",
          "name": "_tokenId",
          "type": "uint256"
        }
      ],
      "name": "ownerOf",
      "outputs": [
        {
          "internalType": "address",
          "name": "",
          "type": "address"
        }
      ],
      "stateMutability": "view",
      "type": "function"
    },
    {
      "inputs": [
        {
          "internalType": "address",
          "name": "_from",
          "type": "address"
        },
        {
          "internalType": "address",
          "name": "_to",
          "type": "address"
        },
        {
          "internalType": "uint256",
          "name": "_tokenId",
          "type": "uint256"
        }
      ],
      "name": "transferFrom",
      "outputs": [],
      "stateMutability": "nonpayable",
      "type": "function"
    }
  ],
  "bytecode": "0x608060405234801561001057600080fd5b50610915806100206000396000f3fe608060405234801561001057600080fd5b50600436106100415760003560e01c806323b872dd146100465780636352211e1461006257806370a0823114610092575b600080fd5b610060600480360381019061005b9190610514565b6100c2565b005b61007c60048036038101906100779190610567565b6100d2565b60405161008991906105a3565b60405180910390f35b6100ac60048036038101906100a791906105be565b610182565b6040516100b991906105fa565b60405180910390f35b6100cd838383610239565b505050565b60008060008084815260200190815260200160002060009054906101000a900473ffffffffffffffffffffffffffffffffffffffff169050600073ffffffffffffffffffffffffffffffffffffffff168173ffffffffffffffffffffffffffffffffffffffff1603610179576040517f08c379a000000000000000000000000000000000000000000000000000000000815260040161017090610672565b60405180910390fd5b80915050919050565b60008073ffffffffffffffffffffffffffffffffffffffff168273ffffffffffffffffffffffffffffffffffffffff16036101f2576040517f08c379a00000000000000000000000000000000000000000000000000000000081526004016101e990610704565b60405180910390fd5b600160008373ffffffffffffffffffffffffffffffffffffffff1673ffffffffffffffffffffffffffffffffffffffff168152602001908152602001600020549050919050565b8273ffffffffffffffffffffffffffffffffffffffff16610259826100d2565b73ffffffffffffffffffffffffffffffffffffffff16146102af576040517f08c379a00000000000000000000000000000000000000000000000000000000081526004016102a690610796565b60405180910390fd5b600073ffffffffffffffffffffffffffffffffffffffff168273ffffffffffffffffffffffffffffffffffffffff160361031e576040517f08c379a000000000000000000000000000000000000000000000000000000000815260040161031590610828565b60405180910390fd5b8160008083815260200190815260200160002060006101000a81548173ffffffffffffffffffffffffffffffffffffffff021916908373ffffffffffffffffffffffffffffffffffffffff16021790555060018060008473ffffffffffffffffffffffffffffffffffffffff1673ffffffffffffffffffffffffffffffffffffffff16815260200190815260200160002060008282546103be9190610877565b9250508190555060018060008573ffffffffffffffffffffffffffffffffffffffff1673ffffffffffffffffffffffffffffffffffffffff168152602001908152602001600020600082825461041491906108ab565b92505081905550808273ffffffffffffffffffffffffffffffffffffffff168473ffffffffffffffffffffffffffffffffffffffff167fddf252ad1be2c89b69c2b068fc378daa952ba7f163c4a11628f55a4df523b3ef60405160405180910390a4505050565b600080fd5b600073ffffffffffffffffffffffffffffffffffffffff82169050919050565b60006104ab82610480565b9050919050565b6104bb816104a0565b81146104c657600080fd5b50565b6000813590506104d8816104b2565b92915050565b6000819050919050565b6104f1816104de565b81146104fc57600080fd5b50565b60008135905061050e816104e8565b92915050565b60008060006060848603121561052d5761052c61047b565b5b600061053b868287016104c9565b935050602061054c868287016104c9565b925050604061055d868287016104ff565b9150509250925092565b60006020828403121561057d5761057c61047b565b5b600061058b848285016104ff565b91505092915050565b61059d816104a0565b82525050565b60006020820190506105b86000830184610594565b92915050565b6000602082840312156105d4576105d361047b565b5b60006105e2848285016104c9565b91505092915050565b6105f4816104de565b82525050565b600060208201905061060f60008301846105eb565b92915050565b600082825260208201905092915050565b7f4552433732313a20496e76616c696420746f6b656e2069640000000000000000600082015250565b600061065c601883610615565b915061066782610626565b602082019050919050565b6000602082019050818103600083015261068b8161064f565b9050919050565b7f4f776e657220717565727920666f72206e6f6e2d65786973746e636520746f6b60008201527f656e000000000000000000000000000000000000000000000000000000000000602082015250565b60006106ee602283610615565b91506106f982610692565b604082019050919050565b6000602082019050818103600083015261071d816106e1565b9050919050565b7f547279696e6720746f207472616e73666572206120746f6b656e20746865206160008201527f64647265737320646f6573206e6f74206f776e21000000000000000000000000602082015250565b6000610780603483610615565b915061078b82610724565b604082019050919050565b600060208201905081810360008301526107af81610773565b9050919050565b7f4572726f72202d20455243373231205472616e7366657220746f207a65726f2060008201527f6164647265737300000000000000000000000000000000000000000000000000602082015250565b6000610812602783610615565b915061081d826107b6565b604082019050919050565b6000602082019050818103600083015261084181610805565b9050919050565b7f4e487b7100000000000000000000000000000000000000000000000000000000600052601160045260246000fd5b6000610882826104de565b915061088d836104de565b92508282019050808211156108a5576108a4610848565b5b92915050565b60006108b6826104de565b91506108c1836104de565b92508282039050818111156108d9576108d8610848565b5b9291505056fea26469706673582212206d702991ea71750b798961de3ca0ee394abfd4680877cba14711a3af116deb8d64736f6c63430008100033",
  "immutableReferences": {},
  "source": "// SPDX-License-Identifier: MIT\npragma solidity ^0.8.0;\n\n\ncontract ERC721 {\n\n    event Transfer(\n                address indexed from, \n                address indexed to, \n                uint256 indexed tokenId);\n\n    //mapping from token id to owner\n    mapping (uint256 => address) private _tokenOwner;\n\n    //mapping from token owner to number of owned token\n    mapping(address => uint256) private _ownedTokenCount;\n\n    //mapping from token id to approve addresses\n    mapping(uint256 => address) private _tokenApprovals;\n\n    function balanceOf(address _owner) public view returns(uint256) {\n        require(_owner != address(0), 'Owner query for non-existnce token');\n        return _ownedTokenCount[_owner];\n    }\n\n    function ownerOf(uint256 _tokenId) public view returns(address) {\n        address owner = _tokenOwner[_tokenId];\n        require(owner != address(0),'ERC721: Invalid token id');\n        return owner;\n    }\n\n    function _exist(uint256 _tokenId) internal view returns(bool) {\n        address owner = _tokenOwner[_tokenId];\n        return owner != address(0);\n    }\n\n    function _mint(address to, uint256 tokenId) internal virtual {\n        //requires that address isn't zero\n        require(to != address(0), 'ECR721: Minting to 0 address');\n        //requires the token does not already exist\n        require(!_exist(tokenId), 'ECR721: Token already minted');\n        //we are adding a new address with a token id for mining\n        _tokenOwner[tokenId] = to;\n        //keeping track of each address miniting and adding one to the count\n        _ownedTokenCount[to] += 1;\n\n        emit Transfer(address(0), to, tokenId);\n    }\n\n    /// @notice Transfer ownership of an NFT -- THE CALLER IS RESPONSIBLE\n    ///  TO CONFIRM THAT `_to` IS CAPABLE OF RECEIVING NFTS OR ELSE\n    ///  THEY MAY BE PERMANENTLY LOST\n    /// @dev Throws unless `msg.sender` is the current owner, an authorized\n    ///  operator, or the approved address for this NFT. Throws if `_from` is\n    ///  not the current owner. Throws if `_to` is the zero address. Throws if\n    ///  `_tokenId` is not a valid NFT.\n    /// @param _from The current owner of the NFT\n    /// @param _to The new owner\n    /// @param _tokenId The NFT to transfer\n    function _transferFrom(address _from, address _to, uint256 _tokenId) internal {\n        require(ownerOf(_tokenId) == _from, 'Trying to transfer a token the address does not own!');\n        require(_to != address(0), 'Error - ERC721 Transfer to zero address');\n\n        _tokenOwner[_tokenId] = _to;\n        _ownedTokenCount[_to] += 1;\n\n        _ownedTokenCount[_from] -= 1;\n\n        emit Transfer(_from, _to, _tokenId);\n    }\n\n    function transferFrom(address _from, address _to, uint256 _tokenId) public {\n        _transferFrom(_from, _to, _tokenId);\n    }\n}",
  "sourcePath": "/Users/hiteshumaletiya/Documents/Demo/blockchain/nft-marketplace/src/contracts/ERC721.sol",
  "compiler": {
    "name": "solc",
    "version": "0.8.16+commit.07a7930e.Emscripten.clang"
  },
  "schemaVersion": "3.4.9",
  "updatedAt": "2022-08-22T11:15:35.135Z",
  "devdoc": {
    "kind": "dev",
    "methods": {},
    "version": 1
  },
  "userdoc": {
    "kind": "user",
    "methods": {},
    "version": 1
  }
}