{
  "contractName": "ERC721Connector",
  "abi": [
    {
      "inputs": [
        {
          "internalType": "string",
          "name": "name",
          "type": "string"
        },
        {
          "internalType": "string",
          "name": "symbol",
          "type": "string"
        }
      ],
      "stateMutability": "nonpayable",
      "type": "constructor"
    },
    {
      "anonymous": false,
      "inputs": [
        {
          "indexed": true,
          "internalType": "address",
          "name": "from",
          "type": "address"
        },
        {
          "indexed": true,
          "internalType": "address",
          "name": "to",
          "type": "address"
        },
        {
          "indexed": true,
          "internalType": "uint256",
          "name": "tokenId",
          "type": "uint256"
        }
      ],
      "name": "Transfer",
      "type": "event"
    },
    {
      "inputs": [
        {
          "internalType": "uint256",
          "name": "",
          "type": "uint256"
        }
      ],
      "name": "kryptoBirds",
      "outputs": [
        {
          "internalType": "string",
          "name": "",
          "type": "string"
        }
      ],
      "stateMutability": "view",
      "type": "function"
    },
    {
      "inputs": [],
      "name": "name",
      "outputs": [
        {
          "internalType": "string",
          "name": "",
          "type": "string"
        }
      ],
      "stateMutability": "view",
      "type": "function"
    },
    {
      "inputs": [],
      "name": "symbol",
      "outputs": [
        {
          "internalType": "string",
          "name": "",
          "type": "string"
        }
      ],
      "stateMutability": "view",
      "type": "function"
    },
    {
      "inputs": [
        {
          "internalType": "string",
          "name": "_kryptoBird",
          "type": "string"
        }
      ],
      "name": "mint",
      "outputs": [],
      "stateMutability": "nonpayable",
      "type": "function"
    }
  ],
  "bytecode": "0x60806040523480156200001157600080fd5b5060405162001382380380620013828339818101604052810190620000379190620001fa565b818181600090816200004a9190620004ca565b5080600190816200005c9190620004ca565b5050505050620005b1565b6000604051905090565b600080fd5b600080fd5b600080fd5b600080fd5b6000601f19601f8301169050919050565b7f4e487b7100000000000000000000000000000000000000000000000000000000600052604160045260246000fd5b620000d08262000085565b810181811067ffffffffffffffff82111715620000f257620000f162000096565b5b80604052505050565b60006200010762000067565b9050620001158282620000c5565b919050565b600067ffffffffffffffff82111562000138576200013762000096565b5b620001438262000085565b9050602081019050919050565b60005b838110156200017057808201518184015260208101905062000153565b60008484015250505050565b6000620001936200018d846200011a565b620000fb565b905082815260208101848484011115620001b257620001b162000080565b5b620001bf84828562000150565b509392505050565b600082601f830112620001df57620001de6200007b565b5b8151620001f18482602086016200017c565b91505092915050565b6000806040838503121562000214576200021362000071565b5b600083015167ffffffffffffffff81111562000235576200023462000076565b5b6200024385828601620001c7565b925050602083015167ffffffffffffffff81111562000267576200026662000076565b5b6200027585828601620001c7565b9150509250929050565b600081519050919050565b7f4e487b7100000000000000000000000000000000000000000000000000000000600052602260045260246000fd5b60006002820490506001821680620002d257607f821691505b602082108103620002e857620002e76200028a565b5b50919050565b60008190508160005260206000209050919050565b60006020601f8301049050919050565b600082821b905092915050565b600060088302620003527fffffffffffffffffffffffffffffffffffffffffffffffffffffffffffffffff8262000313565b6200035e868362000313565b95508019841693508086168417925050509392505050565b6000819050919050565b6000819050919050565b6000620003ab620003a56200039f8462000376565b62000380565b62000376565b9050919050565b6000819050919050565b620003c7836200038a565b620003df620003d682620003b2565b84845462000320565b825550505050565b600090565b620003f6620003e7565b62000403818484620003bc565b505050565b5b818110156200042b576200041f600082620003ec565b60018101905062000409565b5050565b601f8211156200047a576200044481620002ee565b6200044f8462000303565b810160208510156200045f578190505b620004776200046e8562000303565b83018262000408565b50505b505050565b600082821c905092915050565b60006200049f600019846008026200047f565b1980831691505092915050565b6000620004ba83836200048c565b9150826002028217905092915050565b620004d5826200027f565b67ffffffffffffffff811115620004f157620004f062000096565b5b620004fd8254620002b9565b6200050a8282856200042f565b600060209050601f8311600181146200054257600084156200052d578287015190505b620005398582620004ac565b865550620005a9565b601f1984166200055286620002ee565b60005b828110156200057c5784890151825560018201915060208501945060208101905062000555565b868310156200059c578489015162000598601f8916826200048c565b8355505b6001600288020188555050505b505050505050565b610dc180620005c16000396000f3fe608060405234801561001057600080fd5b506004361061004c5760003560e01c806306fdde031461005157806395d89b411461006f578063b20dac5f1461008d578063d85d3d27146100bd575b600080fd5b6100596100d9565b6040516100669190610668565b60405180910390f35b61007761016b565b6040516100849190610668565b60405180910390f35b6100a760048036038101906100a291906106d4565b6101fd565b6040516100b49190610668565b60405180910390f35b6100d760048036038101906100d29190610836565b6102a9565b005b6060600080546100e8906108ae565b80601f0160208091040260200160405190810160405280929190818152602001828054610114906108ae565b80156101615780601f1061013657610100808354040283529160200191610161565b820191906000526020600020905b81548152906001019060200180831161014457829003601f168201915b5050505050905090565b60606001805461017a906108ae565b80601f01602080910402602001604051908101604052809291908181526020018280546101a6906108ae565b80156101f35780601f106101c8576101008083540402835291602001916101f3565b820191906000526020600020905b8154815290600101906020018083116101d657829003601f168201915b5050505050905090565b6004818154811061020d57600080fd5b906000526020600020016000915090508054610228906108ae565b80601f0160208091040260200160405190810160405280929190818152602001828054610254906108ae565b80156102a15780601f10610276576101008083540402835291602001916102a1565b820191906000526020600020905b81548152906001019060200180831161028457829003601f168201915b505050505081565b6005816040516102b9919061091b565b908152602001604051809103902060009054906101000a900460ff1615610315576040517f08c379a000000000000000000000000000000000000000000000000000000000815260040161030c9061097e565b60405180910390fd5b6004819080600181540180825580915050600190039060005260206000200160009091909190915090816103499190610b4a565b506000600160048054905061035e9190610c4b565b905061036a33826103a5565b600160058360405161037c919061091b565b908152602001604051809103902060006101000a81548160ff0219169083151502179055505050565b600073ffffffffffffffffffffffffffffffffffffffff168273ffffffffffffffffffffffffffffffffffffffff1603610414576040517f08c379a000000000000000000000000000000000000000000000000000000000815260040161040b90610ccb565b60405180910390fd5b61041d81610566565b1561045d576040517f08c379a000000000000000000000000000000000000000000000000000000000815260040161045490610d37565b60405180910390fd5b816002600083815260200190815260200160002060006101000a81548173ffffffffffffffffffffffffffffffffffffffff021916908373ffffffffffffffffffffffffffffffffffffffff1602179055506001600360008473ffffffffffffffffffffffffffffffffffffffff1673ffffffffffffffffffffffffffffffffffffffff16815260200190815260200160002060008282546104ff9190610d57565b92505081905550808273ffffffffffffffffffffffffffffffffffffffff16600073ffffffffffffffffffffffffffffffffffffffff167fddf252ad1be2c89b69c2b068fc378daa952ba7f163c4a11628f55a4df523b3ef60405160405180910390a45050565b6000806002600084815260200190815260200160002060009054906101000a900473ffffffffffffffffffffffffffffffffffffffff169050600073ffffffffffffffffffffffffffffffffffffffff168173ffffffffffffffffffffffffffffffffffffffff161415915050919050565b600081519050919050565b600082825260208201905092915050565b60005b838110156106125780820151818401526020810190506105f7565b60008484015250505050565b6000601f19601f8301169050919050565b600061063a826105d8565b61064481856105e3565b93506106548185602086016105f4565b61065d8161061e565b840191505092915050565b60006020820190508181036000830152610682818461062f565b905092915050565b6000604051905090565b600080fd5b600080fd5b6000819050919050565b6106b18161069e565b81146106bc57600080fd5b50565b6000813590506106ce816106a8565b92915050565b6000602082840312156106ea576106e9610694565b5b60006106f8848285016106bf565b91505092915050565b600080fd5b600080fd5b7f4e487b7100000000000000000000000000000000000000000000000000000000600052604160045260246000fd5b6107438261061e565b810181811067ffffffffffffffff821117156107625761076161070b565b5b80604052505050565b600061077561068a565b9050610781828261073a565b919050565b600067ffffffffffffffff8211156107a1576107a061070b565b5b6107aa8261061e565b9050602081019050919050565b82818337600083830152505050565b60006107d96107d484610786565b61076b565b9050828152602081018484840111156107f5576107f4610706565b5b6108008482856107b7565b509392505050565b600082601f83011261081d5761081c610701565b5b813561082d8482602086016107c6565b91505092915050565b60006020828403121561084c5761084b610694565b5b600082013567ffffffffffffffff81111561086a57610869610699565b5b61087684828501610808565b91505092915050565b7f4e487b7100000000000000000000000000000000000000000000000000000000600052602260045260246000fd5b600060028204905060018216806108c657607f821691505b6020821081036108d9576108d861087f565b5b50919050565b600081905092915050565b60006108f5826105d8565b6108ff81856108df565b935061090f8185602086016105f4565b80840191505092915050565b600061092782846108ea565b915081905092915050565b7f4572726f72202d204b727970746f4269726420616c7265616479206578697374600082015250565b60006109686020836105e3565b915061097382610932565b602082019050919050565b600060208201905081810360008301526109978161095b565b9050919050565b60008190508160005260206000209050919050565b60006020601f8301049050919050565b600082821b905092915050565b600060088302610a007fffffffffffffffffffffffffffffffffffffffffffffffffffffffffffffffff826109c3565b610a0a86836109c3565b95508019841693508086168417925050509392505050565b6000819050919050565b6000610a47610a42610a3d8461069e565b610a22565b61069e565b9050919050565b6000819050919050565b610a6183610a2c565b610a75610a6d82610a4e565b8484546109d0565b825550505050565b600090565b610a8a610a7d565b610a95818484610a58565b505050565b5b81811015610ab957610aae600082610a82565b600181019050610a9b565b5050565b601f821115610afe57610acf8161099e565b610ad8846109b3565b81016020851015610ae7578190505b610afb610af3856109b3565b830182610a9a565b50505b505050565b600082821c905092915050565b6000610b2160001984600802610b03565b1980831691505092915050565b6000610b3a8383610b10565b9150826002028217905092915050565b610b53826105d8565b67ffffffffffffffff811115610b6c57610b6b61070b565b5b610b7682546108ae565b610b81828285610abd565b600060209050601f831160018114610bb45760008415610ba2578287015190505b610bac8582610b2e565b865550610c14565b601f198416610bc28661099e565b60005b82811015610bea57848901518255600182019150602085019450602081019050610bc5565b86831015610c075784890151610c03601f891682610b10565b8355505b6001600288020188555050505b505050505050565b7f4e487b7100000000000000000000000000000000000000000000000000000000600052601160045260246000fd5b6000610c568261069e565b9150610c618361069e565b9250828203905081811115610c7957610c78610c1c565b5b92915050565b7f4543523732313a204d696e74696e6720746f2030206164647265737300000000600082015250565b6000610cb5601c836105e3565b9150610cc082610c7f565b602082019050919050565b60006020820190508181036000830152610ce481610ca8565b9050919050565b7f4543523732313a20546f6b656e20616c7265616479206d696e74656400000000600082015250565b6000610d21601c836105e3565b9150610d2c82610ceb565b602082019050919050565b60006020820190508181036000830152610d5081610d14565b9050919050565b6000610d628261069e565b9150610d6d8361069e565b9250828201905080821115610d8557610d84610c1c565b5b9291505056fea2646970667358221220129a1ed8c95c8b493cfaf5dbb03e1457942ae89346d65451af9e96767f41d8a864736f6c63430008100033",
  "immutableReferences": {},
  "source": "// SPDX-License-Identifier: MIT\npragma solidity ^0.8.0;\n\nimport './ERC721Metadata.sol';\nimport './ERC721.sol';\n\ncontract ERC721Connector is ERC721Metadata, ERC721{\n\n    string[] public kryptoBirds;\n\n    mapping(string=>bool) _kryptoBirdsExist;\n\n    function mint(string memory _kryptoBird) public {\n\n        require(!_kryptoBirdsExist[_kryptoBird],'Error - KryptoBird already exist');\n\n        kryptoBirds.push(_kryptoBird);\n        uint _id = kryptoBirds.length - 1;\n        _mint(msg.sender, _id);\n\n        _kryptoBirdsExist[_kryptoBird] = true;\n    }\n\n    constructor(string memory name, string memory symbol) ERC721Metadata(name, symbol){\n\n    }\n}",
  "sourcePath": "/Users/hiteshumaletiya/Documents/Demo/blockchain/nft-marketplace/src/contracts/ERC721Connector.sol",
  "compiler": {
    "name": "solc",
    "version": "0.8.16+commit.07a7930e.Emscripten.clang"
  },
  "schemaVersion": "3.4.9",
  "updatedAt": "2022-08-18T13:58:00.192Z",
  "devdoc": {
    "kind": "dev",
    "methods": {},
    "version": 1
  },
  "userdoc": {
    "kind": "user",
    "methods": {},
    "version": 1
  }
}