{
  "contractName": "KryptoBirdz",
  "abi": [
    {
      "inputs": [],
      "stateMutability": "nonpayable",
      "type": "constructor"
    },
    {
      "anonymous": false,
      "inputs": [
        {
          "indexed": true,
          "internalType": "address",
          "name": "from",
          "type": "address"
        },
        {
          "indexed": true,
          "internalType": "address",
          "name": "to",
          "type": "address"
        },
        {
          "indexed": true,
          "internalType": "uint256",
          "name": "tokenId",
          "type": "uint256"
        }
      ],
      "name": "Transfer",
      "type": "event"
    },
    {
      "inputs": [
        {
          "internalType": "address",
          "name": "_owner",
          "type": "address"
        }
      ],
      "name": "balanceOf",
      "outputs": [
        {
          "internalType": "uint256",
          "name": "",
          "type": "uint256"
        }
      ],
      "stateMutability": "view",
      "type": "function",
      "constant": true
    },
    {
      "inputs": [
        {
          "internalType": "uint256",
          "name": "",
          "type": "uint256"
        }
      ],
      "name": "kryptoBirds",
      "outputs": [
        {
          "internalType": "string",
          "name": "",
          "type": "string"
        }
      ],
      "stateMutability": "view",
      "type": "function",
      "constant": true
    },
    {
      "inputs": [],
      "name": "name",
      "outputs": [
        {
          "internalType": "string",
          "name": "",
          "type": "string"
        }
      ],
      "stateMutability": "view",
      "type": "function",
      "constant": true
    },
    {
      "inputs": [
        {
          "internalType": "uint256",
          "name": "_tokenId",
          "type": "uint256"
        }
      ],
      "name": "ownerOf",
      "outputs": [
        {
          "internalType": "address",
          "name": "",
          "type": "address"
        }
      ],
      "stateMutability": "view",
      "type": "function",
      "constant": true
    },
    {
      "inputs": [],
      "name": "symbol",
      "outputs": [
        {
          "internalType": "string",
          "name": "",
          "type": "string"
        }
      ],
      "stateMutability": "view",
      "type": "function",
      "constant": true
    },
    {
      "inputs": [
        {
          "internalType": "uint256",
          "name": "_index",
          "type": "uint256"
        }
      ],
      "name": "tokenByIndex",
      "outputs": [
        {
          "internalType": "uint256",
          "name": "",
          "type": "uint256"
        }
      ],
      "stateMutability": "view",
      "type": "function",
      "constant": true
    },
    {
      "inputs": [
        {
          "internalType": "address",
          "name": "_owner",
          "type": "address"
        },
        {
          "internalType": "uint256",
          "name": "_index",
          "type": "uint256"
        }
      ],
      "name": "tokenOfOwnerByIndex",
      "outputs": [
        {
          "internalType": "uint256",
          "name": "",
          "type": "uint256"
        }
      ],
      "stateMutability": "view",
      "type": "function",
      "constant": true
    },
    {
      "inputs": [
        {
          "internalType": "uint256",
          "name": "_index",
          "type": "uint256"
        }
      ],
      "name": "tokensByIndex",
      "outputs": [
        {
          "internalType": "uint256",
          "name": "",
          "type": "uint256"
        }
      ],
      "stateMutability": "view",
      "type": "function",
      "constant": true
    },
    {
      "inputs": [],
      "name": "totalSupply",
      "outputs": [
        {
          "internalType": "uint256",
          "name": "",
          "type": "uint256"
        }
      ],
      "stateMutability": "view",
      "type": "function",
      "constant": true
    },
    {
      "inputs": [
        {
          "internalType": "address",
          "name": "_from",
          "type": "address"
        },
        {
          "internalType": "address",
          "name": "_to",
          "type": "address"
        },
        {
          "internalType": "uint256",
          "name": "_tokenId",
          "type": "uint256"
        }
      ],
      "name": "transferFrom",
      "outputs": [],
      "stateMutability": "nonpayable",
      "type": "function"
    },
    {
      "inputs": [
        {
          "internalType": "string",
          "name": "_kryptoBird",
          "type": "string"
        }
      ],
      "name": "mint",
      "outputs": [],
      "stateMutability": "nonpayable",
      "type": "function"
    }
  ],
  "bytecode": "0x60806040523480156200001157600080fd5b506040518060400160405280600a81526020017f4b727970746f42697264000000000000000000000000000000000000000000008152506040518060400160405280600681526020017f4b424952445a00000000000000000000000000000000000000000000000000008152508181816000908162000091919062000328565b508060019081620000a3919062000328565b50505050506200040f565b600081519050919050565b7f4e487b7100000000000000000000000000000000000000000000000000000000600052604160045260246000fd5b7f4e487b7100000000000000000000000000000000000000000000000000000000600052602260045260246000fd5b600060028204905060018216806200013057607f821691505b602082108103620001465762000145620000e8565b5b50919050565b60008190508160005260206000209050919050565b60006020601f8301049050919050565b600082821b905092915050565b600060088302620001b07fffffffffffffffffffffffffffffffffffffffffffffffffffffffffffffffff8262000171565b620001bc868362000171565b95508019841693508086168417925050509392505050565b6000819050919050565b6000819050919050565b60006200020962000203620001fd84620001d4565b620001de565b620001d4565b9050919050565b6000819050919050565b6200022583620001e8565b6200023d620002348262000210565b8484546200017e565b825550505050565b600090565b6200025462000245565b620002618184846200021a565b505050565b5b8181101562000289576200027d6000826200024a565b60018101905062000267565b5050565b601f821115620002d857620002a2816200014c565b620002ad8462000161565b81016020851015620002bd578190505b620002d5620002cc8562000161565b83018262000266565b50505b505050565b600082821c905092915050565b6000620002fd60001984600802620002dd565b1980831691505092915050565b6000620003188383620002ea565b9150826002028217905092915050565b6200033382620000ae565b67ffffffffffffffff8111156200034f576200034e620000b9565b5b6200035b825462000117565b620003688282856200028d565b600060209050601f831160018114620003a057600084156200038b578287015190505b6200039785826200030a565b86555062000407565b601f198416620003b0866200014c565b60005b82811015620003da57848901518255600182019150602085019450602081019050620003b3565b86831015620003fa5784890151620003f6601f891682620002ea565b8355505b6001600288020188555050505b505050505050565b611ad1806200041f6000396000f3fe608060405234801561001057600080fd5b50600436106100a95760003560e01c80636352211e116100715780636352211e1461016657806370a082311461019657806395d89b41146101c6578063b0d65751146101e4578063b20dac5f14610214578063d85d3d2714610244576100a9565b806306fdde03146100ae57806318160ddd146100cc57806323b872dd146100ea5780632f745c59146101065780634f6ccce714610136575b600080fd5b6100b6610260565b6040516100c39190610edd565b60405180910390f35b6100d46102f2565b6040516100e19190610f18565b60405180910390f35b61010460048036038101906100ff9190610fd1565b6102ff565b005b610120600480360381019061011b9190611024565b61030f565b60405161012d9190610f18565b60405180910390f35b610150600480360381019061014b9190611064565b61042e565b60405161015d9190610f18565b60405180910390f35b610180600480360381019061017b9190611064565b61049f565b60405161018d91906110a0565b60405180910390f35b6101b060048036038101906101ab91906110bb565b610550565b6040516101bd9190610f18565b60405180910390f35b6101ce610607565b6040516101db9190610edd565b60405180910390f35b6101fe60048036038101906101f99190611064565b610699565b60405161020b9190610f18565b60405180910390f35b61022e60048036038101906102299190611064565b6106ff565b60405161023b9190610edd565b60405180910390f35b61025e6004803603810190610259919061121d565b6107ab565b005b60606000805461026f90611295565b80601f016020809104026020016040519081016040528092919081815260200182805461029b90611295565b80156102e85780601f106102bd576101008083540402835291602001916102e8565b820191906000526020600020905b8154815290600101906020018083116102cb57829003601f168201915b5050505050905090565b6000600580549050905090565b61030a8383836108a7565b505050565b600061031a83610550565b821061035b576040517f08c379a000000000000000000000000000000000000000000000000000000000815260040161035290611312565b60405180910390fd5b600073ffffffffffffffffffffffffffffffffffffffff168373ffffffffffffffffffffffffffffffffffffffff16036103ca576040517f08c379a00000000000000000000000000000000000000000000000000000000081526004016103c1906113a4565b60405180910390fd5b600760008473ffffffffffffffffffffffffffffffffffffffff1673ffffffffffffffffffffffffffffffffffffffff168152602001908152602001600020828154811061041b5761041a6113c4565b5b9060005260206000200154905092915050565b60006104386102f2565b8210610479576040517f08c379a00000000000000000000000000000000000000000000000000000000081526004016104709061143f565b60405180910390fd5b6005828154811061048d5761048c6113c4565b5b90600052602060002001549050919050565b6000806002600084815260200190815260200160002060009054906101000a900473ffffffffffffffffffffffffffffffffffffffff169050600073ffffffffffffffffffffffffffffffffffffffff168173ffffffffffffffffffffffffffffffffffffffff1603610547576040517f08c379a000000000000000000000000000000000000000000000000000000000815260040161053e906114ab565b60405180910390fd5b80915050919050565b60008073ffffffffffffffffffffffffffffffffffffffff168273ffffffffffffffffffffffffffffffffffffffff16036105c0576040517f08c379a00000000000000000000000000000000000000000000000000000000081526004016105b7906113a4565b60405180910390fd5b600360008373ffffffffffffffffffffffffffffffffffffffff1673ffffffffffffffffffffffffffffffffffffffff168152602001908152602001600020549050919050565b60606001805461061690611295565b80601f016020809104026020016040519081016040528092919081815260200182805461064290611295565b801561068f5780601f106106645761010080835404028352916020019161068f565b820191906000526020600020905b81548152906001019060200180831161067257829003601f168201915b5050505050905090565b60006106a36102f2565b82106106e4576040517f08c379a00000000000000000000000000000000000000000000000000000000081526004016106db9061143f565b60405180910390fd5b60066000838152602001908152602001600020549050919050565b6009818154811061070f57600080fd5b90600052602060002001600091509050805461072a90611295565b80601f016020809104026020016040519081016040528092919081815260200182805461075690611295565b80156107a35780601f10610778576101008083540402835291602001916107a3565b820191906000526020600020905b81548152906001019060200180831161078657829003601f168201915b505050505081565b600a816040516107bb9190611507565b908152602001604051809103902060009054906101000a900460ff1615610817576040517f08c379a000000000000000000000000000000000000000000000000000000000815260040161080e9061156a565b60405180910390fd5b60098190806001815401808255809150506001900390600052602060002001600090919091909150908161084b9190611736565b50600060016009805490506108609190611837565b905061086c3382610aec565b6001600a8360405161087e9190611507565b908152602001604051809103902060006101000a81548160ff0219169083151502179055505050565b8273ffffffffffffffffffffffffffffffffffffffff166108c78261049f565b73ffffffffffffffffffffffffffffffffffffffff161461091d576040517f08c379a0000000000000000000000000000000000000000000000000000000008152600401610914906118dd565b60405180910390fd5b600073ffffffffffffffffffffffffffffffffffffffff168273ffffffffffffffffffffffffffffffffffffffff160361098c576040517f08c379a00000000000000000000000000000000000000000000000000000000081526004016109839061196f565b60405180910390fd5b816002600083815260200190815260200160002060006101000a81548173ffffffffffffffffffffffffffffffffffffffff021916908373ffffffffffffffffffffffffffffffffffffffff1602179055506001600360008473ffffffffffffffffffffffffffffffffffffffff1673ffffffffffffffffffffffffffffffffffffffff1681526020019081526020016000206000828254610a2e919061198f565b925050819055506001600360008573ffffffffffffffffffffffffffffffffffffffff1673ffffffffffffffffffffffffffffffffffffffff1681526020019081526020016000206000828254610a859190611837565b92505081905550808273ffffffffffffffffffffffffffffffffffffffff168473ffffffffffffffffffffffffffffffffffffffff167fddf252ad1be2c89b69c2b068fc378daa952ba7f163c4a11628f55a4df523b3ef60405160405180910390a4505050565b610af68282610b0d565b610aff81610cce565b610b098282610d17565b5050565b600073ffffffffffffffffffffffffffffffffffffffff168273ffffffffffffffffffffffffffffffffffffffff1603610b7c576040517f08c379a0000000000000000000000000000000000000000000000000000000008152600401610b7390611a0f565b60405180910390fd5b610b8581610ddb565b15610bc5576040517f08c379a0000000000000000000000000000000000000000000000000000000008152600401610bbc90611a7b565b60405180910390fd5b816002600083815260200190815260200160002060006101000a81548173ffffffffffffffffffffffffffffffffffffffff021916908373ffffffffffffffffffffffffffffffffffffffff1602179055506001600360008473ffffffffffffffffffffffffffffffffffffffff1673ffffffffffffffffffffffffffffffffffffffff1681526020019081526020016000206000828254610c67919061198f565b92505081905550808273ffffffffffffffffffffffffffffffffffffffff16600073ffffffffffffffffffffffffffffffffffffffff167fddf252ad1be2c89b69c2b068fc378daa952ba7f163c4a11628f55a4df523b3ef60405160405180910390a45050565b6005805490506006600083815260200190815260200160002081905550600581908060018154018082558091505060019003906000526020600020016000909190919091505550565b600760008373ffffffffffffffffffffffffffffffffffffffff1673ffffffffffffffffffffffffffffffffffffffff168152602001908152602001600020805490506008600083815260200190815260200160002081905550600760008373ffffffffffffffffffffffffffffffffffffffff1673ffffffffffffffffffffffffffffffffffffffff1681526020019081526020016000208190806001815401808255809150506001900390600052602060002001600090919091909150555050565b6000806002600084815260200190815260200160002060009054906101000a900473ffffffffffffffffffffffffffffffffffffffff169050600073ffffffffffffffffffffffffffffffffffffffff168173ffffffffffffffffffffffffffffffffffffffff161415915050919050565b600081519050919050565b600082825260208201905092915050565b60005b83811015610e87578082015181840152602081019050610e6c565b60008484015250505050565b6000601f19601f8301169050919050565b6000610eaf82610e4d565b610eb98185610e58565b9350610ec9818560208601610e69565b610ed281610e93565b840191505092915050565b60006020820190508181036000830152610ef78184610ea4565b905092915050565b6000819050919050565b610f1281610eff565b82525050565b6000602082019050610f2d6000830184610f09565b92915050565b6000604051905090565b600080fd5b600080fd5b600073ffffffffffffffffffffffffffffffffffffffff82169050919050565b6000610f7282610f47565b9050919050565b610f8281610f67565b8114610f8d57600080fd5b50565b600081359050610f9f81610f79565b92915050565b610fae81610eff565b8114610fb957600080fd5b50565b600081359050610fcb81610fa5565b92915050565b600080600060608486031215610fea57610fe9610f3d565b5b6000610ff886828701610f90565b935050602061100986828701610f90565b925050604061101a86828701610fbc565b9150509250925092565b6000806040838503121561103b5761103a610f3d565b5b600061104985828601610f90565b925050602061105a85828601610fbc565b9150509250929050565b60006020828403121561107a57611079610f3d565b5b600061108884828501610fbc565b91505092915050565b61109a81610f67565b82525050565b60006020820190506110b56000830184611091565b92915050565b6000602082840312156110d1576110d0610f3d565b5b60006110df84828501610f90565b91505092915050565b600080fd5b600080fd5b7f4e487b7100000000000000000000000000000000000000000000000000000000600052604160045260246000fd5b61112a82610e93565b810181811067ffffffffffffffff82111715611149576111486110f2565b5b80604052505050565b600061115c610f33565b90506111688282611121565b919050565b600067ffffffffffffffff821115611188576111876110f2565b5b61119182610e93565b9050602081019050919050565b82818337600083830152505050565b60006111c06111bb8461116d565b611152565b9050828152602081018484840111156111dc576111db6110ed565b5b6111e784828561119e565b509392505050565b600082601f830112611204576112036110e8565b5b81356112148482602086016111ad565b91505092915050565b60006020828403121561123357611232610f3d565b5b600082013567ffffffffffffffff81111561125157611250610f42565b5b61125d848285016111ef565b91505092915050565b7f4e487b7100000000000000000000000000000000000000000000000000000000600052602260045260246000fd5b600060028204905060018216806112ad57607f821691505b6020821081036112c0576112bf611266565b5b50919050565b7f4f776e657220696e646578206973206f7574206f6620626f756e642100000000600082015250565b60006112fc601c83610e58565b9150611307826112c6565b602082019050919050565b6000602082019050818103600083015261132b816112ef565b9050919050565b7f4f776e657220717565727920666f72206e6f6e2d65786973746e636520746f6b60008201527f656e000000000000000000000000000000000000000000000000000000000000602082015250565b600061138e602283610e58565b915061139982611332565b604082019050919050565b600060208201905081810360008301526113bd81611381565b9050919050565b7f4e487b7100000000000000000000000000000000000000000000000000000000600052603260045260246000fd5b7f476c6f62616c20696e646578206973206f7574206f6620626f756e6421000000600082015250565b6000611429601d83610e58565b9150611434826113f3565b602082019050919050565b600060208201905081810360008301526114588161141c565b9050919050565b7f4552433732313a20496e76616c696420746f6b656e2069640000000000000000600082015250565b6000611495601883610e58565b91506114a08261145f565b602082019050919050565b600060208201905081810360008301526114c481611488565b9050919050565b600081905092915050565b60006114e182610e4d565b6114eb81856114cb565b93506114fb818560208601610e69565b80840191505092915050565b600061151382846114d6565b915081905092915050565b7f4572726f72202d204b727970746f4269726420616c7265616479206578697374600082015250565b6000611554602083610e58565b915061155f8261151e565b602082019050919050565b6000602082019050818103600083015261158381611547565b9050919050565b60008190508160005260206000209050919050565b60006020601f8301049050919050565b600082821b905092915050565b6000600883026115ec7fffffffffffffffffffffffffffffffffffffffffffffffffffffffffffffffff826115af565b6115f686836115af565b95508019841693508086168417925050509392505050565b6000819050919050565b600061163361162e61162984610eff565b61160e565b610eff565b9050919050565b6000819050919050565b61164d83611618565b6116616116598261163a565b8484546115bc565b825550505050565b600090565b611676611669565b611681818484611644565b505050565b5b818110156116a55761169a60008261166e565b600181019050611687565b5050565b601f8211156116ea576116bb8161158a565b6116c48461159f565b810160208510156116d3578190505b6116e76116df8561159f565b830182611686565b50505b505050565b600082821c905092915050565b600061170d600019846008026116ef565b1980831691505092915050565b600061172683836116fc565b9150826002028217905092915050565b61173f82610e4d565b67ffffffffffffffff811115611758576117576110f2565b5b6117628254611295565b61176d8282856116a9565b600060209050601f8311600181146117a0576000841561178e578287015190505b611798858261171a565b865550611800565b601f1984166117ae8661158a565b60005b828110156117d6578489015182556001820191506020850194506020810190506117b1565b868310156117f357848901516117ef601f8916826116fc565b8355505b6001600288020188555050505b505050505050565b7f4e487b7100000000000000000000000000000000000000000000000000000000600052601160045260246000fd5b600061184282610eff565b915061184d83610eff565b925082820390508181111561186557611864611808565b5b92915050565b7f547279696e6720746f207472616e73666572206120746f6b656e20746865206160008201527f64647265737320646f6573206e6f74206f776e21000000000000000000000000602082015250565b60006118c7603483610e58565b91506118d28261186b565b604082019050919050565b600060208201905081810360008301526118f6816118ba565b9050919050565b7f4572726f72202d20455243373231205472616e7366657220746f207a65726f2060008201527f6164647265737300000000000000000000000000000000000000000000000000602082015250565b6000611959602783610e58565b9150611964826118fd565b604082019050919050565b600060208201905081810360008301526119888161194c565b9050919050565b600061199a82610eff565b91506119a583610eff565b92508282019050808211156119bd576119bc611808565b5b92915050565b7f4543523732313a204d696e74696e6720746f2030206164647265737300000000600082015250565b60006119f9601c83610e58565b9150611a04826119c3565b602082019050919050565b60006020820190508181036000830152611a28816119ec565b9050919050565b7f4543523732313a20546f6b656e20616c7265616479206d696e74656400000000600082015250565b6000611a65601c83610e58565b9150611a7082611a2f565b602082019050919050565b60006020820190508181036000830152611a9481611a58565b905091905056fea264697066735822122075033c9387ba5c52f1137795b4ec972e36661afb5a8f5321197b0fd4862eb4b764736f6c63430008100033",
  "immutableReferences": {},
  "source": "// SPDX-License-Identifier: MIT\npragma solidity ^0.8.0;\n\nimport './ERC721Connector.sol';\n\ncontract KryptoBirdz is ERC721Connector{\n    \n    string[] public kryptoBirds;\n\n    mapping(string=>bool) _kryptoBirdsExist;\n\n    function mint(string memory _kryptoBird) public {\n\n        require(!_kryptoBirdsExist[_kryptoBird],'Error - KryptoBird already exist');\n\n        kryptoBirds.push(_kryptoBird);\n        uint _id = kryptoBirds.length - 1;\n        _mint(msg.sender, _id);\n\n        _kryptoBirdsExist[_kryptoBird] = true;\n    }\n    \n    constructor() ERC721Connector('KryptoBird', 'KBIRDZ'){\n        \n    }\n}",
  "sourcePath": "/Users/hiteshumaletiya/Documents/Demo/blockchain/nft-marketplace/src/contracts/KryptoBirdz.sol",
  "compiler": {
    "name": "solc",
    "version": "0.8.16+commit.07a7930e.Emscripten.clang"
  },
  "schemaVersion": "3.4.9",
  "updatedAt": "2022-08-22T11:15:45.269Z",
  "networkType": "ethereum",
  "devdoc": {
    "kind": "dev",
    "methods": {
      "tokenByIndex(uint256)": {
        "details": "Throws if `_index` >= `totalSupply()`.",
        "params": {
          "_index": "A counter less than `totalSupply()`"
        },
        "returns": {
          "_0": "The token identifier for the `_index`th NFT,  (sort order not specified)"
        }
      },
      "tokenOfOwnerByIndex(address,uint256)": {
        "details": "Throws if `_index` >= `balanceOf(_owner)` or if  `_owner` is the zero address, representing invalid NFTs.",
        "params": {
          "_index": "A counter less than `balanceOf(_owner)`",
          "_owner": "An address where we are interested in NFTs owned by them"
        },
        "returns": {
          "_0": "The token identifier for the `_index`th NFT assigned to `_owner`,   (sort order not specified)"
        }
      },
      "totalSupply()": {
        "returns": {
          "_0": "A count of valid NFTs tracked by this contract, where each one of  them has an assigned and queryable owner not equal to the zero address"
        }
      }
    },
    "version": 1
  },
  "userdoc": {
    "kind": "user",
    "methods": {
      "tokenByIndex(uint256)": {
        "notice": "Enumerate valid NFTs"
      },
      "tokenOfOwnerByIndex(address,uint256)": {
        "notice": "Enumerate NFTs assigned to an owner"
      },
      "totalSupply()": {
        "notice": "Count NFTs tracked by this contract"
      }
    },
    "version": 1
  }
}